:10000000B6C00000DFC00000DDC00000DBC00000A3
:10001000D9C00000D7C00000D5C00000D3C0000088
:10002000D1C00000CFC000000C94E90C0C94630B0D
:10003000C9C00000C7C00000C5C00000C3C00000A8
:10004000C1C00000BFC00000BDC00000BBC00000B8
:10005000B9C00000B7C00000B5C000000C94AA0AE7
:10006000B1C00000AFC00000ADC00000ABC00000D8
:10007000A9C00000A7C00000A5C00000A3C00000E8
:10008000A1C000009FC000009DC000009BC00000F8
:100090000C94D80897C0000000010000CC001200AA
:1000A000020000DE004300030000210104010309F7
:1000B00004250118020309043F011603030904572C
:1000C000010C0001C10201803601813612010002DB
:1000D00002000020C016830400010102030109028E
:1000E0004300020100C032090400000102020100C5
:1000F0000524001001052401000104240206052442
:100100000600010705820308004009040100020AF5
:1001100000000007050302400000070584024000BC
:10012000000403090418035400650065006E0073A1
:100130000079006400750069006E006F0000001611
:10014000035500530042002000530065007200690F
:100150000061006C0000000C0331003200330034F9
:10016000003500000000E300600752102C0111244C
:100170001FBECFEFD0E2DEBFCDBF12E0A0E0B1E006
:10018000E4EDF5E200E00BBF02C007900D92AC3D3C
:10019000B107D9F71BBE14E0ACEDB2E001C01D926F
:1001A000AD30B107E1F711E0CCE6D1E004C0229711
:1001B000FE010E94DA12C636D107C9F70E94670D08
:1001C0000C94DE121DCF80E090E0A0E8BFE38093A6
:1001D000130390931403A0931503B0931603809315
:1001E000170390931803A0931903B0931A038093F5
:1001F0001B0390931C03A0931D03B0931E038093D5
:100200001F0390932003A0932103B093220380E067
:1002100090E0A0E0B0E08093330390933403A09388
:100220003503B09336038093370390933803A0933C
:100230003903B0933A0380932B0390932C03A0933C
:100240002D03B0932E0380932F0390933003A0933C
:100250003103B0933203089508950F931F93CF9302
:10026000DF93EC018881998163E570E0EFD5A88187
:10027000B981ED91FC9111970190F081E02DCD01B4
:1002800062E3099588819981A1D68881998163E586
:1002900070E0DCD58881998163E570E046E050E04C
:1002A000A3D6A881B981ED91FC9111970480F581C5
:1002B000E02DCD01099506970CF45FC0A881B981A6
:1002C000ED91FC9111970680F781E02DCD01099504
:1002D0008C01A881B981ED91FC9111970680F7817D
:1002E000E02DCD010995382F20E0200F311F3C83F0
:1002F0002B83A881B981ED91FC9111970680F7813C
:10030000E02DCD0109958C01A881B981ED91FC9179
:1003100011970680F781E02DCD010995382F20E057
:10032000200F311F3E832D83A881B981ED91FC916F
:1003300011970680F781E02DCD0109958C01A881E8
:10034000B981ED91FC9111970680F781E02DCD01E7
:100350000995382F20E0200F311F38872F8320C0C8
:10036000E881F981A081B18116962D913C91179772
:10037000CF01F90109959C838B83E881F981A081E4
:10038000B18114962D913C911597CF01F9010995F2
:10039000892B31F71C821B821E821D8218861F82C8
:1003A0008881998113D6DF91CF911F910F91089584
:1003B000CF93DF93DB010D900020E9F71197A61B87
:1003C000B70BEC01E881F9810280F381E02DAD01EA
:1003D0000995DF91CF910895EF92FF920F931F93AC
:1003E0007C01E6DF8C01C7010E946D0D9C01200F8E
:1003F000311FC9011F910F91FF90EF9008952F9227
:100400003F924F925F926F927F928F929F92AF92A4
:10041000BF92CF92DF92EF92FF920F931F93DF93E1
:10042000CF93CDB7DEB768970FB6F894DEBF0FBE97
:10043000CDBF83E094E060E071E0CEDF0E94010B6D
:100440009B01AC0180E090E0A0E0B0E0898B9A8B4A
:10045000AB8BBC8B8D879E87AF87B88B80E89FE482
:10046000A3ECB7E48D839E83AF83B887DA01C9011B
:1004700080549943A24DBF4F8D8B9E8BAF8BB88F0D
:100480000E94010B69837A838B839C83621B730BAD
:10049000840B950B0E94BF1120E034E244E759E43D
:1004A0000E942B113B014C018CED92E0D6DE609155
:1004B000DF027091E002882777FD8095982F0E94D7
:1004C000C1115B016C018091330390913403A091C1
:1004D0003503B09136038093370390933803A0938C
:1004E0003903B0933A03E0902B03F0902C03009172
:1004F0002D0310912E03C601B501A80197010E949A
:100500007112181604F5C601B501A80197010E94E1
:10051000C21020912F03309130034091310350914C
:1005200032030E94C31060932F03709330038093B3
:10053000310390933203A0922B03B0922C03C0920C
:100540002D03D0922E03E0902F03F0903003009102
:10055000310310913203C601B501A80197010E9431
:100560002711882314F5C801B701A60195010E943F
:10057000C2109B01AC0160912B0370912C03809100
:100580002D0390912E030E94C21060932B03709351
:100590002C0380932D0390932E03A0922F03B092EF
:1005A0003003C0923103D0923203E0902F03F090D9
:1005B0003003009131031091320360912B0370914D
:1005C0002C0380912D0390912E03A80197010E9486
:1005D000C21020E030E040E05FE30E947512A80105
:1005E00097010E94C3101B012C0160933303709389
:1005F000340380933503909336032091FF023091AA
:10060000000340910103509102030E94C2106987C8
:100610007A878B879C8720E030E046E053E40E9495
:100620002B112DEC3CEC4CE151E40E9475125B0166
:100630006C0129813A814B815C818D899E89AF89CA
:10064000B88D82179307A407B50708F044C06D85DD
:100650007E858F859889A40193010E9475127B0184
:100660008C01C601B50120E030E040E05FE30E946C
:100670007512A40193010E947512A40193010E94B6
:1006800075129B01AC01C801B7010E94C3106D83B4
:100690007E838F83988769897A898B899C892D814C
:1006A0003E814F8158850E94C310698B7A8B8B8B5A
:1006B0009C8BC601B501A40193010E9475129B0198
:1006C000AC016D857E858F8598890E94C3106D87EA
:1006D0007E878F87988B83E094E068E171E068DE25
:1006E00083E094E049895A896B897C8926E00E94DD
:1006F000F60D83E094E06FE171E05ADE83E094E070
:100700004D815E816F81788526E00E94F60D83E041
:1007100094E068E271E04CDE4091DF025091E0022B
:10072000662757FD6095762F83E094E00E94E90DDF
:1007300083E094E062E371E03BDE83E094E0B601A5
:10074000A50126E00E94F60D83E094E068E371E0E5
:100750002FDE83E094E04D855E856F85788926E005
:100760000E94F60D83E094E06FE371E021DE83E008
:1007700094E0B401A30126E00E94F60D83E094E02A
:1007800065E471E015DE83E094E0B201A10129E0A7
:100790000E94F60D83E094E06CE471E009DE83E0F2
:1007A00094E049855A856B857C8529E00E94F60D89
:1007B00083E094E06CE471E0FBDD83E094E040E0F2
:1007C00050E060E070E029E00E94F60D83E094E0E4
:1007D0006CE471E0EDDD83E094E040E050E060E047
:1007E00070E029E00E94F60D83E094E00E946D0D18
:1007F00069E170E080E090E0EDD629813A814B819B
:100800005C813ECEEF92FF920F931F937C010E947A
:10081000F60D8C01C7010E946D0D080F191FC8014C
:100820001F910F91FF90EF900895EF92FF920F9319
:100830001F937B01122FCB01642FFED2D701ED91C4
:10084000FC910190F081E02DC701612F0995D7013E
:10085000ED91FC910190F081E02DC701602F099589
:10086000C701B4D31F910F91FF90EF9008956F923D
:100870007F928F929F92AF92BF92CF92DF92EF9230
:10088000FF920F931F93CF93DF9383E094E040E0B8
:1008900052EC61E070E00E94701083E094E060E54B
:1008A00071E09ADD01E813E0C801A0D383E094E091
:1008B00066E671E07DDD1093DD020093DC028EEDD3
:1008C00092E0B80143E52DE200E0AFDF6091DC0289
:1008D0007091DD028EED92E043E52DE200E1A5DFAF
:1008E0006091DC027091DD028EED92E043E52DE235
:1008F00008E09BDF6091DC027091DD028EED92E0FA
:1009000043E521E301E091DF62E370E080E090E005
:1009100061D683E094E06AE871E05EDD83E094E014
:100920006FE871E059DDAA24BB243AE7C32E24EC1A
:10093000D22E662477249AE7892E84E4982EC1E08B
:10094000D0E08CED92E089DC6091DF027091E002F2
:10095000882777FD8095982F0E94C1117B018C011B
:100960009501A6010E947112181624F4D801C7013E
:1009700057016D01C801B7019301A4010E9427111D
:10098000882324F4D801C70137014D01219683E063
:10099000C93ED807B1F6C501D60180932B039093C9
:1009A0002C03A0932D03B0932E03C301D401809395
:1009B0002F0390933003A0933103B093320383E06D
:1009C00094E063ED71E0F4DC83E094E0A501B6010E
:1009D00029E00E94F60D83E094E066EE71E0E8DC29
:1009E00083E094E0A301B40129E030E00BDF83E071
:1009F00094E06AE871E0F0DC83E094E06AEF71E093
:100A0000EBDC80E090E0A0E0B0E08093E702909320
:100A1000E802A093E902B093EA021092F302109266
:100A2000F4021092F5021092F6028093EB0290937A
:100A3000EC02A093ED02B093EE021092F702109236
:100A4000F8021092F9021092FA028093EF0290934A
:100A5000F002A093F102B093F2021092FB02109206
:100A6000FC021092FD021092FE0281E090E05CC058
:100A70008CED92E0F2DB8091DF029091E002AA27F8
:100A800097FDA095BA2F2091F3023091F402409186
:100A9000F5025091F602820F931FA41FB51F809399
:100AA000F3029093F402A093F502B093F6028091C2
:100AB000E1029091E202AA2797FDA095BA2F20911A
:100AC000F7023091F8024091F9025091FA02820F38
:100AD000931FA41FB51F8093F7029093F802A09371
:100AE000F902B093FA028091E3029091E402AA27FE
:100AF00097FDA095BA2F2091FB023091FC02409106
:100B0000FD025091FE02820F931FA41FB51F809318
:100B1000FB029093FC02A093FD02B093FE02809131
:100B2000E5029091E60201969093E6028093E50239
:100B30002091E5023091E602253631050CF498CF7C
:100B4000B901882777FD8095982F0E94C1117B01FC
:100B50008C016091F3027091F4028091F502909102
:100B6000F6020E94C111A80197010E942B11609307
:100B7000E7027093E8028093E9029093EA026091A1
:100B8000F7027091F8028091F9029091FA020E94A6
:100B9000C111A80197010E942B116093EB02709381
:100BA000EC028093ED029093EE026091FB02709153
:100BB000FC028091FD029091FE020E94C111A801E9
:100BC00097010E942B116093EF027093F0028093C3
:100BD000F1029093F20283E094E068E372E0E8DBD4
:100BE0004091E7025091E8026091E9027091EA02B7
:100BF00083E094E029E030E005DE83E094E06BE4FC
:100C000072E0EADBC1E0D0E08CED92E026DB60919F
:100C1000DF027091E002882777FD8095982F0E946F
:100C2000C1117B018C018091330390913403A09119
:100C30003503B09136038093370390933803A09324
:100C40003903B0933A03A0902B03B0902C03C090CB
:100C50002D03D0902E03C801B701A60195010E9473
:100C60007112181604F5C801B701A60195010E947A
:100C7000C21020912F0330913003409131035091E5
:100C800032030E94C31060932F037093300380934C
:100C9000310390933203E0922B03F0922C030093E4
:100CA0002D0310932E03A0902F03B0903003C0901B
:100CB0003103D0903203C801B701A60195010E940B
:100CC0002711882314F5C601B501A80197010E94D8
:100CD000C2109B01AC0160912B0370912C03809199
:100CE0002D0390912E030E94C21060932B037093EA
:100CF0002C0380932D0390932E03E0922F03F09208
:100D000030030093310310933203E0902F03F090EF
:100D10003003009131031091320360912B037091E5
:100D20002C0380912D0390912E03A80197010E941E
:100D3000C21020E030E040E05FE30E947512A8019D
:100D400097010E94C3105B016C01609333037093A1
:100D500034038093350390933603C130D10549F4B1
:100D60006093FF027093000380930103909302034A
:100D700026C06091FF027091000380910103909161
:100D8000020326E636E646E65FE30E9475127B0123
:100D90008C01C601B5012DEC3CEC4CEC5DE30E94EE
:100DA00075129B01AC01C801B7010E94C31060938A
:100DB000FF02709300038093010390930203219636
:100DC00083E0C93ED80709F01FCF83E094E06FE8C5
:100DD00072E0EEDA4091FF0250910003609101034E
:100DE0007091020383E094E029E030E00BDD80E0C5
:100DF00090E0A0E0B0E08093230390932403A093BD
:100E00002503B093260383E094E062EA72E0E4DA1B
:100E100068EE73E080E090E0DDD3DF91CF911F9129
:100E20000F91FF90EF90DF90CF90BF90AF909F9089
:100E30008F907F906F90089581E0809380036093FE
:100E40005D0310927E0310927F03089581E08093EA
:100E5000800360935D0310927E0310927F030895D8
:100E600020915C0330E080915B03281B3109C901AC
:100E7000089540915B0380915C03481718F02FEFB1
:100E80003FEF0AC0E42FF0E0E55CFC4F8081282FA3
:100E900030E04F5F40935B03C9010895E0915B032D
:100EA00080915C03E81718F0EFEFFFEF06C0F0E069
:100EB000E55CFC4F8081E82FF0E0CF0108950895B4
:100EC0001092830388EE93E0A0E0B0E08093840367
:100ED00090938503A0938603B093870310928803B1
:100EE0008FEB92E090938203809381030895CF92D9
:100EF000DF92EF92FF920F931F93CF93DF937C01CA
:100F00006B018A01809180038823A1F0C0E0D0E0CA
:100F10000DC0D701ED91FC91D601AC0FBD1F019022
:100F2000F081E02DC7016C9109952196C017D1077A
:100F300080F303C0CB01642F20D1C801DF91CF9192
:100F40001F910F91FF90EF90DF90CF900895DF9366
:100F5000CF930F92CDB7DEB7FC01698380918003F8
:100F60008823B9F080917F03803228F081E082836A
:100F700020E030E014C080917E03E82FF0E0E25AD8
:100F8000FC4F998190838F5F80937E0380937F03D2
:100F900004C0CE01019661E0F0D021E030E0C9014B
:100FA0000F90CF91DF9108950F93062F80915D03ED
:100FB0006EE573E040917F0321E08AD010927E03BA
:100FC00010927F03109280030F91089561E0ECCF9F
:100FD000413208F040E2862F6BE373E030D010928C
:100FE0005B0380935C03089521E0F2CF10925B03D2
:100FF00010925C0310927E0310927F0300C0109247
:10100000890381E080938B0310928C03599AE0EB63
:10101000F0E080818F7D8083589A84B58F7D84BD78
:10102000E9EBF0E080818E7F808380818D7F8083FB
:1010300088E48093B80085E48093BC000895382F3D
:10104000413210F040E042C0809189038823E1F7EB
:1010500091E09093890320938B038FEF8093F603A5
:101060001092B10341504093B2034F5F90938A03B3
:1010700080918A03330F832B80938A0380918C03A2
:10108000813041F410928C0380918A038093BB00DD
:1010900085EC01C085EE8093BC008091890381308E
:1010A000E1F38091B103841710F44091B10320E083
:1010B00030E00AC0FB01E20FF31FD901AF56BC4F6D
:1010C0008C9180832F5F3F4F2417A0F3842F0895C6
:1010D0000F931F93582F122F413210F081E04AC016
:1010E000809189038823E1F782E08093890300934C
:1010F0008B038FEF8093F6031092B1034093B203FA
:10110000A1E9B3E0FB0102C081918D938E2F861B74
:101110008417D0F310928A0380918A03550F852B90
:1011200080938A0380918C03813041F410928C0368
:1011300080918A038093BB0085EC01C085EE80938B
:10114000BC00112321F0809189038230E1F380916A
:10115000F6038F3F11F480E00DC08091F6038032DA
:1011600011F482E007C08091F603803311F084E02F
:1011700001C083E01F910F910895482F613210F054
:1011800081E0089580918903843011F082E0089510
:101190006093D403A3EBB3E0842F9C01F90102C058
:1011A00081918D938E2F841B8617D0F380E0089554
:1011B0001F920F920FB60F920BB60F9211242F931E
:1011C0003F934F935F936F937F938F939F93AF93CF
:1011D000BF93EF93FF938091B90090E0887F907068
:1011E0008036910509F4F2C081369105CCF588323C
:1011F000910509F47BC089329105B4F480319105E1
:1012000009F46FC0813191053CF4009709F447C19E
:10121000089709F04FC165C08831910509F466C08F
:10122000809709F047C182C08034910509F4A4C0B9
:101230008134910544F48033910509F482C0C89744
:1012400009F038C189C08035910509F489C0883515
:10125000910509F496C08834910509F02BC1AEC000
:101260008839910509F413C189399105ECF488375F
:10127000910509F4ABC0893791054CF48836910586
:1012800009F4A4C08037910509F014C19FC08838C3
:10129000910509F4FCC08039910509F49DC080389E
:1012A000910509F007C198C0803B910509F4C6C0BB
:1012B000813B91054CF4803A910509F49FC0883A2E
:1012C000910509F0F7C0BAC0803C910509F4E3C06C
:1012D000883C910509F4DFC0883B910509F0EAC01C
:1012E000C2C080918A038093BB00CFC09091B103AC
:1012F0008091B203981768F49091B103E92FF0E060
:10130000EF56FC4F80818093BB009F5F9093B103A9
:10131000BCC080918B03882309F44BC085ED80937A
:10132000BC008091BC0084FDFCCFC2C080E28093F1
:10133000F60385ED8093BC008091BC0084FDFCCF5A
:10134000B7C080E38093F60385ED8093BC00809165
:10135000BC0084FDFCCFACC088E38093F6039BC047
:101360008091B1039091BB00E82FF0E0EF56FC4F65
:1013700090838F5F8093B1039091B1038091B2030A
:1013800082C08091B1039091BB00E82FF0E0EF564E
:10139000FC4F90838F5F8093B10380918B038823F0
:1013A00041F085ED8093BC008091BC0084FDFCCFB2
:1013B0007FC081E080938C0384EA6EC085ED8093CA
:1013C000BC008091BC0084FDFCCF72C083E08093A0
:1013D00089031092F50359C08091F503803208F01B
:1013E00056C08091F5039091BB00E82FF0E0EB52DE
:1013F000FC4F90838F5F8093F50347C08091F50386
:10140000803230F4E091F503F0E0EB52FC4F1082B3
:1014100085ED8093BC008091BC0084FDFCCF1092D0
:1014200089036091F503E0918F03F091900385EDBE
:1014300093E070E009951092F5032DC084E080934D
:1014400089031092D3031092D403E0918D03F0919D
:101450008E0309958091D403882329F481E0809339
:10146000D4031092B3039091D303E92FF0E0ED542D
:10147000FC4F80818093BB009F5F9093D30390913A
:10148000D3038091D403981710F485EC01C085E84C
:101490008093BC000FC085EC8093BC0009C0109203
:1014A000F60385ED8093BC008091BC0084FDFCCFE9
:1014B00010928903FF91EF91BF91AF919F918F910E
:1014C0007F916F915F914F913F912F910F900BBE44
:1014D0000F900FBE0F901F9018951DBA10926800C4
:1014E0001CBC10BE1FBA10927A0010926E001092AF
:1014F0006F0010927000109271001092C90010924B
:10150000BC0011B814B817B81AB81DB810BA12B880
:1015100015B818B81BB81EB811BA0895F89480E22F
:101520009EE40197F1F781E08093E00080E28093F0
:10153000D80080E69AEE0197F1F7CFDF0C9400FE19
:10154000FFCFF894CADF80E69AEE0197F1F70C948A
:101550000000FFCF8F938FB78F938091FF038D5F34
:101560008D37D0F48093FF038091FB038F5F8093CE
:10157000FB03D8F08091FC038F4F8093FC03A8F00D
:101580008091FD038F4F8093FD0378F08091FE03DF
:101590008F4F8093FE0309C08D578093FF03809186
:1015A000FB038E5F8093FB0328F78091F7038C5F2A
:1015B0008093F70358F08091F8038F4F8093F803DE
:1015C00028F08091F9038F4F8093F9038F918FBF9B
:1015D0008F9118959B01AC0114D0FB010CC011D068
:1015E0006E1B7F0B685E7340D0F32150304040404B
:1015F0005040E851FC4F211531054105510579F75F
:1016000008950FB6F89466B515B27091F7038091FE
:10161000F8039091F9030FBE10FE05C06F3F19F05B
:101620007C5F8F4F9F4F11240024660F001C660FB4
:10163000001C70290895F894E1E6F0E020E820838A
:10164000108283E084BD85BDEEE6F0E0808181609C
:10165000808391E09093800082E08093810090935A
:10166000B0008093B100909390008093910086E841
:1016700080937A0020937B0010927E0002D07894B1
:1016800008958091D80087FF02C085FF1BC081E8C4
:101690008093D70080EA8093D80086E189BD09B4A1
:1016A00000FEFDCF80E98093D8001092E0001092F8
:1016B0000D0410920E0410920F041092E1008DE0C0
:1016C0008093E20008951F920F920FB60F920BB60F
:1016D0000F9211242F933F934F935F936F937F93B8
:1016E0008F939F93AF93BF93EF93FF931092E90073
:1016F0008091E80083FF57C12091F1009091F100A3
:101700004091F1005091F1006091F1007091F10071
:10171000A091F100B091F10082EF8093E800963043
:1017200009F044C0E8E9F0E020E085919591841744
:10173000950711F0359617C08591959186179707F3
:1017400011F0339610C0259135914491CD01AF3FF2
:10175000B10519F010F08FEF90E0841708F4482FCE
:10176000F9015EEF04C02F5F2630F9F61CC18091AD
:10177000E800282F30E0C90185709070892BB9F3FB
:1017800022FD14C1242F413208F020E2922F04C020
:1017900085918093F10091509923D1F7421B50938A
:1017A000E800442321F7203211F300C1953061F4A1
:1017B0008EEF8093E8008091E80080FFFCCF842FBB
:1017C00080688093E300F2C0993009F5222309F084
:1017D000EAC040930D0410920F04109200048EEFA3
:1017E0008093E800E2ECF0E091E09093E9008591CD
:1017F0008093EB00882331F085918093EC008591F4
:101800008093ED009F5F953081F78EE1C7C09830DF
:1018100061F4203809F0C7C08091E80080FFFCCF58
:1018200080910D048093F10096C09132A9F4213A81
:1018300009F0B9C08091E80080FFFCCF20E030E0E3
:10184000F901EC54FD4F80818093F1002F5F3F4FF1
:1018500027303105A9F77FC0903209F04BC0213203
:1018600009F0A1C08091E80082FFFCCF20E030E0C9
:10187000F901EC54FD4F8091F10080832F5F3F4FC1
:1018800027303105A9F78BEF8093E8008EEF809326
:10189000E8008091B4029091B502A091B602B09197
:1018A000B70286389105A105B10519F48FE0809340
:1018B00001048091B4029091B502A091B602B0915A
:1018C000B70286399105A105B10509F06FC084E022
:1018D0008093E9002FEF06C02093E8008091E80094
:1018E00082FDFCCF8091EE0090E083709070892B98
:1018F00099F727DE923251F4213209F054C0409317
:101900000F048091E80080FFFCCF25C0933241F4A2
:10191000213209F048C08091E80080FFFCCF1BC055
:101920009923E9F48091E80080FFFCCF223811F080
:1019300080E00DC06093E9008091EB0090E025E02D
:10194000969587952A95E1F781701092E90080932A
:10195000F1001092F1008EEF8093E80027C09130E3
:1019600011F0933001F52230F1F4452BE1F4262FEC
:101970002F77822F81508630B0F48EEF8093E8006D
:101980002093E900933079F089E18093EB0081E0C6
:1019900090E002C0880F991F2A95E2F78093EA0031
:1019A0001092EA0003C081E28093EB00FF91EF9177
:1019B000BF91AF919F918F917F916F915F914F9167
:1019C0003F912F910F900BBE0F900FBE0F901F9065
:1019D00018951F920F920FB60F920BB60F9211240B
:1019E0002F933F934F935F936F937F938F939F9327
:1019F000AF93BF93EF93FF938091E1001092E100CA
:101A0000982F83FF11C01092E90081E08093EB00D2
:101A10001092EC0082E28093ED0088E08093F00069
:101A200010920D0410920F0492FF1DC080910D04BE
:101A30008823C9F080910004882359F08150809355
:101A40000004882331F484E08093E9008AE38093E2
:101A5000E80080910104882331F0815080930104D3
:101A6000882309F45BDD90FF0CC080E18093E200E5
:101A700010920D0481E080930E0480EA8093D800D8
:101A800019BC80910E04882379F094FF0DC086E183
:101A900089BD09B400FEFDCF80E98093D8008DE0B8
:101AA0008093E20010920E04FF91EF91BF91AF91ED
:101AB0009F918F917F916F915F914F913F912F9166
:101AC0000F900BBE0F900FBE0F901F901895B3DDB7
:101AD0000E9437040E94FF01FDCFDF93CF9300D017
:101AE000CDB7DEB7DC018DE089838AE08A83ED9192
:101AF000FC9111970280F381E02DCD01BE016F5F53
:101B00007F4F42E050E009950F900F90CF91DF9109
:101B100008950F931F93DF93CF93CDB7DEB72B9725
:101B20000FB6F894DEBF0FBECDBF8C01DE011B9651
:101B300093E3499F4427090E411D802D599F552746
:101B4000400D511D699F6627500D611D799F7727B4
:101B5000600D711D1124840F451F561F671F711DD5
:101B6000850F461F571F611D711D870F411D511D98
:101B7000611D711D769567955795479587959AE0F4
:101B8000899F812D1124805D8E934115510561053A
:101B9000710509F0CDCF222311F08DE28E93F8016B
:101BA00080819181AE014A1B5B0B455F5F4FFC0159
:101BB00022813381C801BD01F90109952B960FB629
:101BC000F894DEBF0FBECDBFCF91DF911F910F9173
:101BD000089577FD02C020E008C07095609550958B
:101BE00041955F4F6F4F7F4F21E093CF4F925F92B0
:101BF0006F927F928F929F92AF92BF92CF92DF921D
:101C0000EF92FF920F931F93DF93CF93CDB7DEB781
:101C100028970FB6F894DEBF0FBECDBF4C017A01F6
:101C20008B01722ECB01BA0120E030E040E050E0A1
:101C30000ED387FD02C0662406C017FB109517F966
:101C400010956624639420E030E040E05FE3DD24FB
:101C50000AC0CA01B9012DEC3CEC4CEC5DE345D463
:101C60009B01AC01D394D714A0F3C801B7018BD268
:101C70005B016C0158D37B018C01C401B801A70141
:101C8000262D47DF582E492E772009F447C0C8017A
:101C9000B70175D39B01AC01C601B50173D29B019D
:101CA000AC018EE28983D72C87E0871510F467E0BA
:101CB000D62EBD2CCC24C3943E010894611C711C0B
:101CC0001FC0CA01B90120E030E040E251E40DD468
:101CD0007B018C0128D3F301EC0DF11D605D608365
:101CE0006053C39470E0882777FD8095982F49D37F
:101CF0009B01AC01C801B70145D29B01AC01BA946C
:101D0000BB20F9F6D401ED91FC91D3940280F381CC
:101D1000E02DC401B3014D2D50E00995852D942D82
:101D200028960FB6F894DEBF0FBECDBFCF91DF91DE
:101D30001F910F91FF90EF90DF90CF90BF90AF90E9
:101D40009F908F907F906F905F904F900895DF935A
:101D5000CF930F92CDB7DEB7FC016983A081B1812B
:101D600012962D913C911397BE016F5F7F4F41E01A
:101D700050E0F90109950F90CF91DF910895FC0192
:101D80009FB7F89480910D04882311F420E010C0CF
:101D900083E08093E9002091F200222349F48091AE
:101DA000E80082FF05C085FD03C08BE68093E80054
:101DB0009FBF8085918597FD03C02F3F09F02F5F5E
:101DC000822F90E00895CF93DF93EC018885998569
:101DD00097FF09C0E881F9810680F781E02DCE01E7
:101DE00009959987888788859985DF91CF9108958E
:101DF000FC012085318537FD05C08FEF9FEF91876E
:101E0000808722C02FB7F89480910D04882369F051
:101E100083E08093E9009BE68091E80085FD09C09E
:101E200082FF03C09093E800F7CF2FBF2FEF3FEF63
:101E30000CC09091F1008091E80085FD03C08BE615
:101E40008093E8002FBF292F30E0C90108959FB784
:101E5000F89480910D04882361F080910004882318
:101E600041F084E08093E9008AE38093E8001092D7
:101E700000049FBF08956F927F928F929F92AF92BE
:101E8000BF92CF92DF92EF92FF920F931F93CF9367
:101E9000DF933C018B0180910D04882329F481E0BC
:101EA000D30112968C9311C03FB7F89484E08093CD
:101EB000E90080910204882369F08091E80085FDA3
:101EC00007C03FBF81E0E3018A8388249924DAC0F8
:101ED0001092020488249924F4E0AF2EE0E4BE2E90
:101EE00071EFE72EF12C6AE3C62E23E0D22EC5C097
:101EF0009091E400915F8091E80085FD19C03FBF9B
:101F00008091E400891731F481E080930204F301A9
:101F10008283B8C080910D04882329F481E0D30125
:101F200012968C93AFC03FB7F894A092E900E3CF2C
:101F30008091F2002B2D281B822F90E04817590723
:101F400008F4242F622F70E0E801D701E0E4E21BDF
:101F5000E03428F4EE0FFF27E055F04F099480C0DD
:101F600089918C9389918C9389918C9389918C938D
:101F700089918C9389918C9389918C9389918C937D
:101F800089918C9389918C9389918C9389918C936D
:101F900089918C9389918C9389918C9389918C935D
:101FA00089918C9389918C9389918C9389918C934D
:101FB00089918C9389918C9389918C9389918C933D
:101FC00089918C9389918C9389918C9389918C932D
:101FD00089918C9389918C9389918C9389918C931D
:101FE00089918C9389918C9389918C9389918C930D
:101FF00089918C9389918C9389918C9389918C93FD
:1020000089918C9389918C9389918C9389918C93EC
:1020100089918C9389918C9389918C9389918C93DC
:1020200089918C9389918C9389918C9389918C93CC
:1020300089918C9389918C9389918C9389918C93BC
:1020400089918C9389918C9389918C9389918C93AC
:1020500089918C9389918C9389918C9389918C939C
:102060008E018091E80085FD02C0C092E800461B09
:10207000570B860E971ED09200044115510509F0AA
:1020800037CF3FBFC401DF91CF911F910F91FF90D8
:10209000EF90DF90CF90BF90AF909F908F907F9008
:1020A0006F900895E3E0F4E08AE0DF011D928A95E5
:1020B000E9F71092050488EE93E0A0E0B0E0809389
:1020C000060490930704A0930804B09309041092A7
:1020D0000A048FEC92E09093040480930304089523
:1020E0002FEF3FEFFC0131872087CBDA0FB6F89452
:1020F0008091FB039091FC03A091FD03B091FE033E
:102100000FBEAC0180910D04882329F068EC70E0CB
:1021100080E090E05FCA80910E04882309F10FB639
:10212000F8948091FB039091FC03A091FD03B09182
:10213000FE030FBE9C0110C00FB6F8948091FB0304
:102140009091FC03A091FD03B091FE030FBE821B92
:10215000930B8B3F9105A8F480910E04882361F7BF
:102160000FB6F8948091FB039091FC03A091FD03BE
:10217000B091FE030FBE841B950B855C994008F45B
:10218000C1CF08955058BB27AA270ED070C161D186
:1021900030F066D120F031F49F3F11F41EF456C1A7
:1021A0000EF4E095E7FB4CC1E92F72D180F3BA172A
:1021B000620773078407950718F071F49EF58AC1CA
:1021C0000EF4E0950B2EBA2FA02D0B01B901900152
:1021D0000C01CA01A0011124FF27591B99F0593F96
:1021E00050F4503E68F11A16F040A22F232F342FDE
:1021F0004427585FF3CF469537952795A795F0402C
:102200005395C9F77EF41F16BA0B620B730B840B40
:10221000BAF09150A1F0FF0FBB1F661F771F881FF8
:10222000C2F70EC0BA0F621F731F841F48F4879550
:1022300077956795B795F7959E3F08F0B3CF93953F
:10224000880F08F09927EE0F979587950895D4D0B9
:1022500008F481E008950CD00AC102D140F0F9D011
:1022600030F021F45F3F19F0EBC0511134C1EEC0E2
:102270000FD198F39923C9F35523B1F3951B550B4F
:10228000BB27AA2762177307840738F09F5F5F4F49
:10229000220F331F441FAA1FA9F333D00E2E3AF08A
:1022A000E0E830D091505040E695001CCAF729D0A4
:1022B000FE2F27D0660F771F881FBB1F26173707F3
:1022C0004807AB07B0E809F0BB0B802DBF01FF2723
:1022D00093585F4F2AF09E3F510568F0B1C0FBC094
:1022E0005F3FECF3983EDCF3869577956795B7955D
:1022F000F7959F5FC9F7880F911D9695879597F978
:102300000895E1E0660F771F881FBB1F62177307F0
:102310008407BA0720F0621B730B840BBA0BEE1F05
:1023200088F7E0950895BCD088F09F5790F0B92FBA
:102330009927B751A0F0D1F0660F771F881F991F1A
:102340001AF0BA95C9F712C0B13081F0C3D0B1E02C
:102350000895C0C0672F782F8827B85F39F0B93F3C
:10236000CCF3869577956795B395D9F73EF490951C
:102370008095709561957F4F8F4F9F4F0895E8949A
:1023800009C097FB3EF490958095709561957F4FBD
:102390008F4F9F4F9923A9F0F92F96E9BB2793956B
:1023A000F695879577956795B795F111F8CFFAF47B
:1023B000BB0F11F460FF1BC06F5F7F4F8F4F9F4FAC
:1023C00016C0882311F096E911C0772321F09EE80A
:1023D000872F762F05C0662371F096E8862F70E070
:1023E00060E02AF09A95660F771F881FDAF7880F4A
:1023F0009695879597F90895990F0008550FAA0BA0
:10240000E0E8FEEF16161706E807F907C0F0121607
:102410001306E407F50798F0621B730B840B950B0A
:1024200039F40A2661F0232B242B252B21F408955F
:102430000A2609F4A140A6958FEF811D811D0895FC
:1024400097F99F6780E870E060E008959FEF80EC67
:10245000089500240A94161617061806090608950A
:1024600000240A9412161306140605060895092E70
:102470000394000C11F4882352F0BB0F40F4BF2BDF
:1024800011F460FF04C06F5F7F4F8F4F9F4F08951F
:1024900057FD9058440F551F59F05F3F71F0479515
:1024A000880F97FB991F61F09F3F79F087950895FA
:1024B000121613061406551FF2CF4695F1DF08C019
:1024C000161617061806991FF1CF86957105610536
:1024D00008940895E894BB2766277727CB0197F9DE
:1024E00008958ADF08F48FEF08950BD0C0CFB1DFD5
:1024F00028F0B6DF18F0952309F0A2CFA7CF11245A
:10250000EACFC6DFA0F3959FD1F3950F50E0551F9A
:10251000629FF001729FBB27F00DB11D639FAA2738
:10252000F00DB11DAA1F649F6627B00DA11D661F87
:10253000829F2227B00DA11D621F739FB00DA11DA8
:10254000621F839FA00D611D221F749F3327A00D62
:10255000611D231F849F600D211D822F762F6A2FFE
:1025600011249F5750408AF0E1F088234AF0EE0F83
:10257000FF1FBB1F661F771F881F91505040A9F790
:102580009E3F510570F05CCFA6CF5F3FECF3983EC5
:10259000DCF3869577956795B795F795E7959F5FF7
:1025A000C1F7FE2B880F911D9695879597F9089591
:1025B000EE0FFF1F0590F491E02D099411E0CCE699
:1025C000D1E003C0FE01F6DF2296CE36D107D1F767
:0425D000F894FFCFAD
:1025D4005374617274696E67206D65617375726599
:1025E4006D656E742E2E2E00506F73203D200009F1
:1025F40044697374203D2000095820526177203DBE
:1026040020000941203D2000095669203D20000991
:1026140054203D200009446E203D2000202C200041
:10262400496E6974696174696E6720537461727468
:1026340075702E2E2E0053657474696E6720757044
:10264400204144584C33343520416363656C6572D2
:102654006F6D657465722E2E2E00446F6E6500508A
:102664006572666F726D696E6720416363656C6F36
:102674006D657465722063616C6962726174696FFF
:102684006E20746F2065737461626C697368207462
:102694006865204E6F6973652044656164204261FA
:1026A4006E6400416363656C204E44422055707033
:1026B4006572203D200009416363656C204E4442ED
:1026C400204C6F776572203D2000506572666F72F2
:1026D4006D696E6720416363656C6F6D65746572C7
:1026E4002063616C6962726174696F6E20757369CD
:1026F4006E672074686520417665726167696E67EC
:10270400206D6574686F6400416363656C20436188
:102714006C696220417665203D2000506572666FC9
:10272400726D696E6720416363656C6F6D65746576
:10273400722063616C6962726174696F6E20757373
:10274400696E6720746865204C6F772050617373DD
:102754002046696C746572206D6574686F6400410D
:102764006363656C2043616C6962204C5046203D74
:1027740020005374617274757020636F6D706C65A2
:1027840074652E0000E1000000000800000000A7AE
:10279400077707300739074E075F0700000000A7D7
:0C27A4000E3B0FBF0EF80EE30E270F00D7
:00000001FF
