:10000000B3C00000D9C00000D7C00000D5C00000B8
:10001000D3C00000D1C00000CFC00000CDC00000A0
:10002000CBC00000C9C0000080C30000F8C10000C0
:10003000C3C00000C1C00000BFC00000BDC00000C0
:10004000BBC00000B9C00000B7C00000B5C00000D0
:10005000B3C00000B1C00000AFC0000027C1000065
:10006000ABC00000A9C00000A7C00000A5C00000F0
:10007000A3C00000A1C000009FC000009DC0000000
:100080009BC0000099C0000097C0000095C0000010
:1000900093C0000091C0000000010000CC001200DD
:1000A000020000DE004300030000210104010309F7
:1000B00004250118020309043F011603030904572C
:1000C000010C0001C10201803601813612010002DB
:1000D00002000020C016830400010102030109028E
:1000E0004300020100C032090400000102020100C5
:1000F0000524001001052401000104240206052442
:100100000600010705820308004009040100020AF5
:1001100000000007050302400000070584024000BC
:10012000000403090418035400650065006E0073A1
:100130000079006400750069006E006F0000001611
:10014000035500530042002000530065007200690F
:100150000061006C0000000C0331003200330034F9
:10016000003500000000DE0511241FBECFEFD0E2F5
:10017000DEBFCDBF11E0A0E0B1E0ECEAFCE000E0C2
:100180000BBF02C007900D92A833B107D9F71BBE71
:1001900011E0A8E3B1E001C01D92AE34B107E1F770
:1001A00011E0C8E6D1E003C02297FE0179D5C6363A
:1001B000D107D1F738D378C523CFCF93DF93DB01B5
:1001C0000D900020E9F71197A61BB70BEC01E88111
:1001D000F9810280F381E02DAD010995DF91CF9186
:1001E000089584E491E060E071E0E7DF64E670E0A8
:1001F00080E090E09BC00F931F9304E411E0C801DE
:1002000040E052EC61E070E0F7D4C80162E071E0D8
:10021000D4DFC8010CD364E670E080E090E086D0C3
:10022000C80168E171E0C9DFC80101D31F910F91D6
:1002300008951DBA109268001CBC10BE1FBA10921F
:100240007A0010926E0010926F001092700010925F
:1002500071001092C9001092BC0011B814B817B800
:100260001AB81DB810BA12B815B818B81BB81EB80D
:1002700011BA0895F89480E29EE40197F1F781E0C5
:100280008093E00080E28093D80080E69AEE0197A8
:10029000F1F7CFDF0C9400FEFFCFF894CADF80E6C1
:1002A0009AEE0197F1F70C940000FFCF8F938FB770
:1002B0008F93809140018D5F8D37D0F48093400102
:1002C00080913C018F5F80933C01D8F080913D018B
:1002D0008F4F80933D01A8F080913E018F4F809316
:1002E0003E0178F080913F018F4F80933F0109C01C
:1002F0008D578093400180913C018E5F80933C013B
:1003000028F7809138018C5F8093380158F08091F4
:1003100039018F4F8093390128F080913A018F4F36
:1003200080933A018F918FBF8F9118959B01AC01FB
:1003300014D0FB010CC011D06E1B7F0B685E7340A4
:10034000D0F32150304040405040E851FC4F21153F
:1003500031054105510579F708950FB6F89466B552
:1003600015B2709138018091390190913A010FBE18
:1003700010FE05C06F3F19F07C5F8F4F9F4F112417
:100380000024660F001C660F001C70290895F89465
:10039000E1E6F0E020E82083108283E084BD85BDA3
:1003A000EEE6F0E080818160808391E090938000B0
:1003B00082E0809381009093B0008093B10090938D
:1003C00090008093910086E880937A0020937B00D0
:1003D00010927E0002D0789408958091D80087FF13
:1003E00002C085FF1BC081E88093D70080EA80931C
:1003F000D80086E189BD09B400FEFDCF80E9809375
:10040000D8001092E00010924E0110924F0110920D
:1004100050011092E1008DE08093E20008951F9258
:100420000F920FB60F920BB60F9211242F933F939A
:100430004F935F936F937F938F939F93AF93BF93EC
:10044000EF93FF931092E9008091E80083FF57C17A
:100450002091F1009091F1004091F1005091F10054
:100460006091F1007091F100A091F100B091F10064
:1004700082EF8093E800963009F044C0E8E9F0E0AC
:1004800020E0859195918417950711F0359617C056
:10049000859195918617970711F0339610C0259195
:1004A00035914491CD01AF3FB10519F010F08FEFB8
:1004B00090E0841708F4482FF9015EEF04C02F5F25
:1004C0002630F9F61CC18091E800282F30E0C901E0
:1004D00085709070892BB9F322FD14C1242F41320D
:1004E00008F020E2922F04C085918093F100915092
:1004F0009923D1F7421B5093E800442321F720327F
:1005000011F300C1953061F48EEF8093E800809183
:10051000E80080FFFCCF842F80688093E300F2C066
:10052000993009F5222309F0EAC040934E01109258
:100530005001109241018EEF8093E800E2ECF0E070
:1005400091E09093E90085918093EB00882331F04E
:1005500085918093EC0085918093ED009F5F9530AD
:1005600081F78EE1C7C0983061F4203809F0C7C028
:100570008091E80080FFFCCF80914E018093F100D4
:1005800096C09132A9F4213A09F0B9C08091E800EF
:1005900080FFFCCF20E030E0F901E05EFE4F80817B
:1005A0008093F1002F5F3F4F27303105A9F77FC0BF
:1005B000903209F04BC0213209F0A1C08091E800CF
:1005C00082FFFCCF20E030E0F901E05EFE4F809139
:1005D000F10080832F5F3F4F27303105A9F78BEF64
:1005E0008093E8008EEF8093E80080912001909145
:1005F0002101A0912201B091230186389105A10526
:10060000B10519F48FE0809342018091200190910F
:100610002101A0912201B091230186399105A10504
:10062000B10509F06FC084E08093E9002FEF06C0A8
:100630002093E8008091E80082FDFCCF8091EE00DD
:1006400090E083709070892B99F727DE923251F4F5
:10065000213209F054C0409350018091E80080FF9E
:10066000FCCF25C0933241F4213209F048C080917B
:10067000E80080FFFCCF1BC09923E9F48091E800DB
:1006800080FFFCCF223811F080E00DC06093E900BC
:100690008091EB0090E025E0969587952A95E1F70B
:1006A00081701092E9008093F1001092F1008EEFBA
:1006B0008093E80027C0913011F0933001F522308B
:1006C000F1F4452BE1F4262F2F77822F81508630CD
:1006D000B0F48EEF8093E8002093E900933079F036
:1006E00089E18093EB0081E090E002C0880F991FC0
:1006F0002A95E2F78093EA001092EA0003C081E2B3
:100700008093EB00FF91EF91BF91AF919F918F91FB
:100710007F916F915F914F913F912F910F900BBE01
:100720000F900FBE0F901F9018951F920F920FB64B
:100730000F920BB60F9211242F933F934F935F9319
:100740006F937F938F939F93AF93BF93EF93FF9399
:100750008091E1001092E100982F83FF11C0109268
:10076000E90081E08093EB001092EC0082E280933C
:10077000ED0088E08093F00010924E01109250013D
:1007800092FF1DC080914E018823C9F080914101E4
:10079000882359F0815080934101882331F484E00B
:1007A0008093E9008AE38093E800809142018823E6
:1007B00031F0815080934201882309F45BDD90FF82
:1007C0000CC080E18093E20010924E0181E08093A2
:1007D0004F0180EA8093D80019BC80914F01882393
:1007E00079F094FF0DC086E189BD09B400FEFDCF0C
:1007F00080E98093D8008DE08093E20010924F0151
:10080000FF91EF91BF91AF919F918F917F916F91E8
:100810005F914F913F912F910F900BBE0F900FBEA4
:100820000F901F901895B3DDE6DCDBDCFECFDF9385
:10083000CF9300D0CDB7DEB7DC018DE089838AE0AD
:100840008A83ED91FC9111970280F381E02DCD0117
:10085000BE016F5F7F4F42E050E009950F900F900F
:10086000CF91DF910895DF93CF930F92CDB7DEB78D
:10087000FC016983A081B18112962D913C9113975F
:10088000BE016F5F7F4F41E050E0F90109950F9085
:10089000CF91DF910895FC019FB7F89480914E01AC
:1008A000882311F420E010C083E08093E9002091B8
:1008B000F200222349F48091E80082FF05C085FD03
:1008C00003C08BE68093E8009FBF8085918597FDEC
:1008D00003C02F3F09F02F5F822F90E00895CF9340
:1008E000DF93EC018885998597FF09C0E881F9813C
:1008F0000680F781E02DCE01099599878887888544
:100900009985DF91CF910895FC012085318537FDD0
:1009100005C08FEF9FEF9187808722C02FB7F89493
:1009200080914E01882369F083E08093E9009BE683
:100930008091E80085FD09C082FF03C09093E80024
:10094000F7CF2FBF2FEF3FEF0CC09091F1008091B8
:10095000E80085FD03C08BE68093E8002FBF292FB8
:1009600030E0C90108959FB7F89480914E01882323
:1009700061F080914101882341F084E08093E90097
:100980008AE38093E800109241019FBF08956F921F
:100990007F928F929F92AF92BF92CF92DF92EF920F
:1009A000FF920F931F93CF93DF933C018B018091B4
:1009B0004E01882329F481E0D30112968C9311C053
:1009C0003FB7F89484E08093E90080914301882345
:1009D00069F08091E80085FD07C03FBF81E0E30139
:1009E0008A8388249924DAC01092430188249924A8
:1009F000F4E0AF2EE0E4BE2E71EFE72EF12C6AE3B7
:100A0000C62E23E0D22EC5C09091E400915F809164
:100A1000E80085FD19C03FBF8091E400891731F4DB
:100A200081E080934301F3018283B8C080914E013D
:100A3000882329F481E0D30112968C93AFC03FB78D
:100A4000F894A092E900E3CF8091F2002B2D281BAF
:100A5000822F90E04817590708F4242F622F70E086
:100A6000E801D701E0E4E21BE03428F4EE0FFF27B1
:100A7000E45CFA4F099480C089918C9389918C939E
:100A800089918C9389918C9389918C9389918C9382
:100A900089918C9389918C9389918C9389918C9372
:100AA00089918C9389918C9389918C9389918C9362
:100AB00089918C9389918C9389918C9389918C9352
:100AC00089918C9389918C9389918C9389918C9342
:100AD00089918C9389918C9389918C9389918C9332
:100AE00089918C9389918C9389918C9389918C9322
:100AF00089918C9389918C9389918C9389918C9312
:100B000089918C9389918C9389918C9389918C9301
:100B100089918C9389918C9389918C9389918C93F1
:100B200089918C9389918C9389918C9389918C93E1
:100B300089918C9389918C9389918C9389918C93D1
:100B400089918C9389918C9389918C9389918C93C1
:100B500089918C9389918C9389918C9389918C93B1
:100B600089918C9389918C9389918C9389918C93A1
:100B700089918C9389918C938E018091E80085FDF9
:100B800002C0C092E800461B570B860E971ED092FB
:100B900041014115510509F037CF3FBFC401DF9135
:100BA000CF911F910F91FF90EF90DF90CF90BF906A
:100BB000AF909F908F907F906F900895E4E4F1E064
:100BC0008AE0DF011D928A95E9F71092460188EECE
:100BD00093E0A0E0B0E08093470190934801A09398
:100BE0004901B0934A0110924B018BE291E090933E
:100BF00045018093440108952FEF3FEFFC013187B9
:100C00002087EBDB0FB6F89480913C0190913D0179
:100C1000A0913E01B0913F010FBEAC0180914E0109
:100C2000882329F068EC70E080E090E07FCB809131
:100C30004F01882309F10FB6F89480913C019091FF
:100C40003D01A0913E01B0913F010FBE9C0110C03B
:100C50000FB6F89480913C0190913D01A0913E0126
:100C6000B0913F010FBE821B930B8B3F9105A8F4FF
:100C700080914F01882361F70FB6F89480913C0171
:100C800090913D01A0913E01B0913F010FBE841BA8
:100C9000950B855C994008F4C1CF0895EE0FFF1FB6
:0C0CA0000590F491E02D0994F894FFCF2A
:100CAC002E00496E6974696174696E6720537461B2
:100CBC00727475702E2E2E00446F6E652E2E2E00C3
:100CCC0000E10000000008000000003304C7044BE2
:080CDC000484046F04B304005A
:00000001FF
