:100000000C9435000C945D000C945D000C945D0024
:100010000C945D000C945D000C945D000C945D00EC
:100020000C945D000C945D000C945D000C945D00DC
:100030000C945D000C945D000C945D000C945D00CC
:100040000C948A000C945D000C9467010C94B5012B
:100050000C945D000C945D000C945D000C945D00AC
:100060000C945D000C945D00210311241FBECFEFA2
:10007000D8E0DEBFCDBF11E0A0E0B1E0E8E5F8E0F8
:1000800002C005900D92A033B107D9F711E0A0E3AB
:10009000B1E001C01D92A33EB107E1F710E0CAE64E
:1000A000D0E004C02297FE010E942604C836D10782
:1000B000C9F70E9477030C942A040C94000081EC89
:1000C00091E060E071E00E94EC0364E670E080E0A3
:1000D00090E00E94D20008950F931F9301EC11E06D
:1000E000C80140E052EC61E070E00E94F001C801FC
:1000F00062E071E00E94EF0364E670E080E090E06F
:100100000E94D200C80168E171E00E94EF031F91D4
:100110000F9108951F920F920FB60F9211242F93F3
:100120003F938F939F93AF93BF93809134019091AE
:100130003501A0913601B091370130913801019617
:10014000A11DB11D232F2D5F2D3720F02D570196B6
:10015000A11DB11D20933801809334019093350186
:10016000A0933601B0933701809130019091310115
:10017000A0913201B09133010196A11DB11D809370
:10018000300190933101A0933201B0933301BF91BC
:10019000AF919F918F913F912F910F900FBE0F9034
:1001A0001F9018959B01AC017FB7F89480913001A6
:1001B00090913101A0913201B091330166B5A89BB5
:1001C00005C06F3F19F00196A11DB11D7FBFBA2F69
:1001D000A92F982F8827860F911DA11DB11D62E0C0
:1001E000880F991FAA1FBB1F6A95D1F7BC012DC0AC
:1001F000FFB7F8948091300190913101A0913201C4
:10020000B0913301E6B5A89B05C0EF3F19F0019608
:10021000A11DB11DFFBFBA2FA92F982F88278E0FC0
:10022000911DA11DB11DE2E0880F991FAA1FBB1FE0
:10023000EA95D1F7861B970B885E9340C8F2215050
:1002400030404040504068517C4F211531054105F8
:10025000510571F60895789484B5826084BD84B5A3
:10026000816084BD85B5826085BD85B5816085BDB1
:10027000EEE6F0E0808181608083E1E8F0E01082CA
:10028000808182608083808181608083E0E8F0E00B
:10029000808181608083E1EBF0E0808184608083F5
:1002A000E0EBF0E0808181608083EAE7F0E080812C
:1002B000846080838081826080838081816080838C
:1002C0008081806880831092C100089508951F92F4
:1002D0000F920FB60F9211242F933F934F938F934A
:1002E0009F93EF93FF938091C00082FD1DC04091CA
:1002F000C6002091790130917A012F5F3F4F2F7313
:10030000307080917B0190917C012817390771F042
:10031000E0917901F0917A01E75CFE4F40833093E0
:100320007A012093790102C08091C600FF91EF917C
:100330009F918F914F913F912F910F900FBE0F90F2
:100340001F901895E091CD01F091CE01E05CFF4F38
:100350008191919120813181821B930B8F739070D9
:10036000892B11F00E94660108951F920F920FB61B
:100370000F9211242F933F938F939F93EF93FF93AB
:100380002091BD013091BE018091BF019091C001CB
:100390002817390731F48091C1008F7D8093C10007
:1003A00014C0E091BF01F091C001E358FE4F2081DD
:1003B0008091BF019091C00101968F7390709093CE
:1003C000C0018093BF012093C600FF91EF919F91E0
:1003D0008F913F912F910F900FBE0F901F90189506
:1003E000AF92BF92DF92EF92FF920F931F93CF9342
:1003F000DF93EC017A018B01DD24403081EE580758
:1004000080E0680780E0780711F0DD24D39491E064
:10041000A92EB12CEC89FD89DD2069F0C50108A069
:1004200002C0880F991F0A94E2F7808360E079E0A8
:100430008DE390E005C0108260E874E88EE190E002
:10044000A80197010E9402042150304040405040D2
:10045000569547953795279580E12030380720F04D
:10046000DD2011F0DD24D6CFE889F9893083EA89CF
:10047000FB89208319A2EE89FF89408121E030E0C9
:10048000C9010C8C02C0880F991F0A94E2F7482B0F
:100490004083EE89FF894081C9010D8C02C0880F1D
:1004A000991F0A94E2F7482B4083EE89FF89408127
:1004B000C9010E8C02C0880F991F0A94E2F7482BDD
:1004C0004083EE89FF8980810F8C02C0220F331F89
:1004D0000A94E2F7209528232083DF91CF911F9182
:1004E0000F91FF90EF90DF90BF90AF900895DC01E7
:1004F0001C96ED91FC911D97E05CFF4F219131918D
:1005000080819181281B390B2F733070C9010895A8
:10051000DC011C96ED91FC911D97E05CFF4F208162
:100520003181E054F040DF01AE5BBF4F8D919C9173
:1005300011972817390719F42FEF3FEF07C08D9156
:100540009C91E80FF91F8081282F30E0C9010895A0
:10055000DC011C96ED91FC911D97E05CFF4F208122
:100560003181E054F040DF01AE5BBF4F8D919C9133
:1005700011972817390719F42FEF3FEF10C08D910D
:100580009C911197E80FF91F20818D919C911197F3
:1005900001968F73907011969C938E9330E0C901F1
:1005A0000895DC0191968C919197882339F05496A7
:1005B000ED91FC915597808186FFF9CF91961C9221
:1005C0000895CF93DF93EC01EE85FF85E05CFF4F4C
:1005D00020813181E054F0402F5F3F4F2F73307006
:1005E000DF01AE5BBF4F8D919C91119728173907A2
:1005F000D1F3E05CFF4F80819181E054F040E80F3F
:10060000F91F6083EE85FF85E05CFF4F3183208317
:10061000EE89FF89208181E090E00F8C02C0880F75
:10062000991F0A94E2F7282B208381E089A3EC89A3
:10063000FD8980818064808381E090E0DF91CF91AB
:1006400008951092C4011092C30188EE93E0A0E0D7
:10065000B0E08093C5019093C601A093C701B09309
:10066000C80184E291E09093C2018093C10189E3C3
:1006700091E09093CE018093CD018DE791E090932E
:10068000D0018093CF0185EC90E09093D2018093CC
:10069000D10184EC90E09093D4018093D30180EC5D
:1006A00090E09093D6018093D50181EC90E09093F7
:1006B000D8018093D70182EC90E09093DA01809387
:1006C000D90186EC90E09093DC018093DB0184E01B
:1006D0008093DD0183E08093DE0187E08093DF017A
:1006E00085E08093E00181E08093E1010895CF935C
:1006F000DF930E942B010E946C00C2EAD1E00E94AD
:100700005F002097E1F30E94A201F9CFCF92DF9220
:10071000EF92FF920F931F93CF93DF937C016B01B6
:100720008A01C0E0D0E00FC0D6016D916D01D70104
:10073000ED91FC910190F081E02DC7010995C80F62
:10074000D91F015010400115110571F7CE01DF913D
:10075000CF911F910F91FF90EF90DF90CF90089570
:10076000EF92FF920F931F938C01DC01ED91FC91AE
:100770000190F081E02D6DE009957C01D801ED91AB
:10078000FC910190F081E02DC8016AE009959C017F
:100790002E0D3F1DC9011F910F91FF90EF900895FD
:1007A000CF93DF93EC016115710519F420E030E07F
:1007B0000FC0DB010D900020E9F71197A61BB70BC6
:1007C000E881F9810280F381E02DAD0109959C015A
:1007D000C901DF91CF9108950E94D0030895EF924F
:1007E000FF920F931F937C010E94D0038C01C701DD
:1007F0000E94B003080F191FC8011F910F91FF90AD
:10080000EF900895A1E21A2EAA1BBB1BFD010DC09B
:10081000AA1FBB1FEE1FFF1FA217B307E407F507B0
:1008200020F0A21BB30BE40BF50B661F771F881F8C
:10083000991F1A9469F760957095809590959B0122
:10084000AC01BD01CF010895EE0FFF1F0590F4919B
:08085000E02D0994F894FFCF9C
:100858002E00496E6974696174696E67205374610A
:10086800727475702E2E2E00446F6E652E2E2E001B
:1008780000000000E10286037702A8028802D10284
:00000001FF
